{
  "_format": "hh-sol-artifact-1",
  "contractName": "CryptoTransfer",
  "sourceName": "contracts/CryptoTransfer.sol",
  "abi": [
    {
      "anonymous": false,
      "inputs": [
        {
          "indexed": false,
          "internalType": "address",
          "name": "from",
          "type": "address"
        },
        {
          "indexed": false,
          "internalType": "address",
          "name": "reciever",
          "type": "address"
        },
        {
          "indexed": false,
          "internalType": "uint256",
          "name": "amount",
          "type": "uint256"
        },
        {
          "indexed": false,
          "internalType": "string",
          "name": "message",
          "type": "string"
        },
        {
          "indexed": false,
          "internalType": "uint256",
          "name": "timestamp",
          "type": "uint256"
        },
        {
          "indexed": false,
          "internalType": "string",
          "name": "keyword",
          "type": "string"
        }
      ],
      "name": "Transfer",
      "type": "event"
    },
    {
      "inputs": [
        {
          "internalType": "address payable",
          "name": "reciever",
          "type": "address"
        },
        {
          "internalType": "uint256",
          "name": "amount",
          "type": "uint256"
        },
        {
          "internalType": "string",
          "name": "message",
          "type": "string"
        },
        {
          "internalType": "string",
          "name": "keyword",
          "type": "string"
        }
      ],
      "name": "addToBlockchain",
      "outputs": [],
      "stateMutability": "payable",
      "type": "function"
    },
    {
      "inputs": [],
      "name": "getAllTransactions",
      "outputs": [
        {
          "components": [
            {
              "internalType": "address",
              "name": "sender",
              "type": "address"
            },
            {
              "internalType": "address",
              "name": "reciever",
              "type": "address"
            },
            {
              "internalType": "uint256",
              "name": "amount",
              "type": "uint256"
            },
            {
              "internalType": "string",
              "name": "message",
              "type": "string"
            },
            {
              "internalType": "uint256",
              "name": "timestamp",
              "type": "uint256"
            },
            {
              "internalType": "string",
              "name": "keyword",
              "type": "string"
            }
          ],
          "internalType": "struct CryptoTransfer.TransferStruct[]",
          "name": "",
          "type": "tuple[]"
        }
      ],
      "stateMutability": "view",
      "type": "function"
    },
    {
      "inputs": [],
      "name": "getTransactionsCount",
      "outputs": [
        {
          "internalType": "uint256",
          "name": "",
          "type": "uint256"
        }
      ],
      "stateMutability": "view",
      "type": "function"
    }
  ],
  "bytecode": "0x608060405234801561001057600080fd5b50610c82806100206000396000f3fe6080604052600436106100345760003560e01c806327506f5314610039578063578cb8f914610064578063cc2d7ead1461008f575b600080fd5b34801561004557600080fd5b5061004e6100ab565b60405161005b91906107a1565b60405180910390f35b34801561007057600080fd5b506100796102ee565b60405161008691906107d2565b60405180910390f35b6100a960048036038101906100a491906109a0565b6102f7565b005b60606001805480602002602001604051908101604052809291908181526020016000905b828210156102e557838290600052602060002090600602016040518060c00160405290816000820160009054906101000a900473ffffffffffffffffffffffffffffffffffffffff1673ffffffffffffffffffffffffffffffffffffffff1673ffffffffffffffffffffffffffffffffffffffff1681526020016001820160009054906101000a900473ffffffffffffffffffffffffffffffffffffffff1673ffffffffffffffffffffffffffffffffffffffff1673ffffffffffffffffffffffffffffffffffffffff168152602001600282015481526020016003820180546101b890610a6e565b80601f01602080910402602001604051908101604052809291908181526020018280546101e490610a6e565b80156102315780601f1061020657610100808354040283529160200191610231565b820191906000526020600020905b81548152906001019060200180831161021457829003601f168201915b505050505081526020016004820154815260200160058201805461025490610a6e565b80601f016020809104026020016040519081016040528092919081815260200182805461028090610a6e565b80156102cd5780601f106102a2576101008083540402835291602001916102cd565b820191906000526020600020905b8154815290600101906020018083116102b057829003601f168201915b505050505081525050815260200190600101906100cf565b50505050905090565b60008054905090565b60016000808282546103099190610acf565b9250508190555060016040518060c001604052803373ffffffffffffffffffffffffffffffffffffffff1681526020018673ffffffffffffffffffffffffffffffffffffffff16815260200185815260200184815260200142815260200183815250908060018154018082558091505060019003906000526020600020906006020160009091909190915060008201518160000160006101000a81548173ffffffffffffffffffffffffffffffffffffffff021916908373ffffffffffffffffffffffffffffffffffffffff16021790555060208201518160010160006101000a81548173ffffffffffffffffffffffffffffffffffffffff021916908373ffffffffffffffffffffffffffffffffffffffff1602179055506040820151816002015560608201518160030190805190602001906104489291906104b9565b506080820151816004015560a082015181600501908051906020019061046f9291906104b9565b5050507f416cfa4330a4565f45c2fd2dd4826a83a37443aba2ce6f79477c7355afac35fa3385858542866040516104ab96959493929190610bdd565b60405180910390a150505050565b8280546104c590610a6e565b90600052602060002090601f0160209004810192826104e7576000855561052e565b82601f1061050057805160ff191683800117855561052e565b8280016001018555821561052e579182015b8281111561052d578251825591602001919060010190610512565b5b50905061053b919061053f565b5090565b5b80821115610558576000816000905550600101610540565b5090565b600081519050919050565b600082825260208201905092915050565b6000819050602082019050919050565b600073ffffffffffffffffffffffffffffffffffffffff82169050919050565b60006105b382610588565b9050919050565b6105c3816105a8565b82525050565b6000819050919050565b6105dc816105c9565b82525050565b600081519050919050565b600082825260208201905092915050565b60005b8381101561061c578082015181840152602081019050610601565b8381111561062b576000848401525b50505050565b6000601f19601f8301169050919050565b600061064d826105e2565b61065781856105ed565b93506106678185602086016105fe565b61067081610631565b840191505092915050565b600060c08301600083015161069360008601826105ba565b5060208301516106a660208601826105ba565b5060408301516106b960408601826105d3565b50606083015184820360608601526106d18282610642565b91505060808301516106e660808601826105d3565b5060a083015184820360a08601526106fe8282610642565b9150508091505092915050565b6000610717838361067b565b905092915050565b6000602082019050919050565b60006107378261055c565b6107418185610567565b93508360208202850161075385610578565b8060005b8581101561078f5784840389528151610770858261070b565b945061077b8361071f565b925060208a01995050600181019050610757565b50829750879550505050505092915050565b600060208201905081810360008301526107bb818461072c565b905092915050565b6107cc816105c9565b82525050565b60006020820190506107e760008301846107c3565b92915050565b6000604051905090565b600080fd5b600080fd5b600061080c82610588565b9050919050565b61081c81610801565b811461082757600080fd5b50565b60008135905061083981610813565b92915050565b610848816105c9565b811461085357600080fd5b50565b6000813590506108658161083f565b92915050565b600080fd5b600080fd5b7f4e487b7100000000000000000000000000000000000000000000000000000000600052604160045260246000fd5b6108ad82610631565b810181811067ffffffffffffffff821117156108cc576108cb610875565b5b80604052505050565b60006108df6107ed565b90506108eb82826108a4565b919050565b600067ffffffffffffffff82111561090b5761090a610875565b5b61091482610631565b9050602081019050919050565b82818337600083830152505050565b600061094361093e846108f0565b6108d5565b90508281526020810184848401111561095f5761095e610870565b5b61096a848285610921565b509392505050565b600082601f8301126109875761098661086b565b5b8135610997848260208601610930565b91505092915050565b600080600080608085870312156109ba576109b96107f7565b5b60006109c88782880161082a565b94505060206109d987828801610856565b935050604085013567ffffffffffffffff8111156109fa576109f96107fc565b5b610a0687828801610972565b925050606085013567ffffffffffffffff811115610a2757610a266107fc565b5b610a3387828801610972565b91505092959194509250565b7f4e487b7100000000000000000000000000000000000000000000000000000000600052602260045260246000fd5b60006002820490506001821680610a8657607f821691505b60208210811415610a9a57610a99610a3f565b5b50919050565b7f4e487b7100000000000000000000000000000000000000000000000000000000600052601160045260246000fd5b6000610ada826105c9565b9150610ae5836105c9565b9250827fffffffffffffffffffffffffffffffffffffffffffffffffffffffffffffffff03821115610b1a57610b19610aa0565b5b828201905092915050565b610b2e816105a8565b82525050565b6000819050919050565b6000610b59610b54610b4f84610588565b610b34565b610588565b9050919050565b6000610b6b82610b3e565b9050919050565b6000610b7d82610b60565b9050919050565b610b8d81610b72565b82525050565b600082825260208201905092915050565b6000610baf826105e2565b610bb98185610b93565b9350610bc98185602086016105fe565b610bd281610631565b840191505092915050565b600060c082019050610bf26000830189610b25565b610bff6020830188610b84565b610c0c60408301876107c3565b8181036060830152610c1e8186610ba4565b9050610c2d60808301856107c3565b81810360a0830152610c3f8184610ba4565b905097965050505050505056fea26469706673582212207636624e93e273e69ab7543b0adfe516bde74d43509ce7ee0e221fcc220f153064736f6c63430008090033",
  "linkReferences": {},
  "deployedLinkReferences": {}
}